{
  "contractName": "TradingStorage",
  "abi": [
    {
      "inputs": [
        {
          "internalType": "uint256",
          "name": "",
          "type": "uint256"
        }
      ],
      "name": "allOpenTrades",
      "outputs": [
        {
          "internalType": "address",
          "name": "trader",
          "type": "address"
        },
        {
          "internalType": "uint256",
          "name": "tradeId",
          "type": "uint256"
        },
        {
          "internalType": "uint256",
          "name": "pair",
          "type": "uint256"
        },
        {
          "internalType": "uint256",
          "name": "openTimestamp",
          "type": "uint256"
        },
        {
          "internalType": "uint256",
          "name": "orderType",
          "type": "uint256"
        },
        {
          "internalType": "int256",
          "name": "leverageAmount",
          "type": "int256"
        },
        {
          "internalType": "int256",
          "name": "collateral",
          "type": "int256"
        },
        {
          "internalType": "int256",
          "name": "entryPrice",
          "type": "int256"
        },
        {
          "internalType": "int256",
          "name": "takeProfit",
          "type": "int256"
        },
        {
          "internalType": "int256",
          "name": "stopLoss",
          "type": "int256"
        },
        {
          "internalType": "int256",
          "name": "liquidationPrice",
          "type": "int256"
        }
      ],
      "stateMutability": "view",
      "type": "function",
      "constant": true
    },
    {
      "inputs": [
        {
          "internalType": "address",
          "name": "",
          "type": "address"
        },
        {
          "internalType": "uint256",
          "name": "",
          "type": "uint256"
        }
      ],
      "name": "usersClosedTrades",
      "outputs": [
        {
          "internalType": "address",
          "name": "trader",
          "type": "address"
        },
        {
          "internalType": "uint256",
          "name": "tradeId",
          "type": "uint256"
        },
        {
          "internalType": "uint256",
          "name": "pair",
          "type": "uint256"
        },
        {
          "internalType": "uint256",
          "name": "openTimestamp",
          "type": "uint256"
        },
        {
          "internalType": "uint256",
          "name": "closeTimestamp",
          "type": "uint256"
        },
        {
          "internalType": "uint256",
          "name": "orderType",
          "type": "uint256"
        },
        {
          "internalType": "int256",
          "name": "leverageAmount",
          "type": "int256"
        },
        {
          "internalType": "int256",
          "name": "collateral",
          "type": "int256"
        },
        {
          "internalType": "int256",
          "name": "entryPrice",
          "type": "int256"
        },
        {
          "internalType": "int256",
          "name": "exitPrice",
          "type": "int256"
        },
        {
          "internalType": "int256",
          "name": "pnl",
          "type": "int256"
        }
      ],
      "stateMutability": "view",
      "type": "function",
      "constant": true
    },
    {
      "inputs": [
        {
          "internalType": "address",
          "name": "",
          "type": "address"
        },
        {
          "internalType": "uint256",
          "name": "",
          "type": "uint256"
        }
      ],
      "name": "usersOpenTrades",
      "outputs": [
        {
          "internalType": "address",
          "name": "trader",
          "type": "address"
        },
        {
          "internalType": "uint256",
          "name": "tradeId",
          "type": "uint256"
        },
        {
          "internalType": "uint256",
          "name": "pair",
          "type": "uint256"
        },
        {
          "internalType": "uint256",
          "name": "openTimestamp",
          "type": "uint256"
        },
        {
          "internalType": "uint256",
          "name": "orderType",
          "type": "uint256"
        },
        {
          "internalType": "int256",
          "name": "leverageAmount",
          "type": "int256"
        },
        {
          "internalType": "int256",
          "name": "collateral",
          "type": "int256"
        },
        {
          "internalType": "int256",
          "name": "entryPrice",
          "type": "int256"
        },
        {
          "internalType": "int256",
          "name": "takeProfit",
          "type": "int256"
        },
        {
          "internalType": "int256",
          "name": "stopLoss",
          "type": "int256"
        },
        {
          "internalType": "int256",
          "name": "liquidationPrice",
          "type": "int256"
        }
      ],
      "stateMutability": "view",
      "type": "function",
      "constant": true
    },
    {
      "inputs": [
        {
          "internalType": "address",
          "name": "",
          "type": "address"
        },
        {
          "internalType": "uint256",
          "name": "",
          "type": "uint256"
        }
      ],
      "name": "usersPendingLimitOrders",
      "outputs": [
        {
          "internalType": "address",
          "name": "trader",
          "type": "address"
        },
        {
          "internalType": "bytes32",
          "name": "pair",
          "type": "bytes32"
        },
        {
          "internalType": "uint256",
          "name": "initializedTimestamp",
          "type": "uint256"
        },
        {
          "internalType": "uint256",
          "name": "orderType",
          "type": "uint256"
        },
        {
          "internalType": "uint256",
          "name": "leverageAmount",
          "type": "uint256"
        },
        {
          "internalType": "uint256",
          "name": "collateral",
          "type": "uint256"
        },
        {
          "internalType": "uint256",
          "name": "limitPrice",
          "type": "uint256"
        },
        {
          "internalType": "uint256",
          "name": "takeProfit",
          "type": "uint256"
        },
        {
          "internalType": "uint256",
          "name": "stopLoss",
          "type": "uint256"
        }
      ],
      "stateMutability": "view",
      "type": "function",
      "constant": true
    },
    {
      "inputs": [
        {
          "internalType": "address",
          "name": "_trader",
          "type": "address"
        },
        {
          "internalType": "uint256",
          "name": "_index",
          "type": "uint256"
        }
      ],
      "name": "cancelPendingLimitOrder",
      "outputs": [],
      "stateMutability": "nonpayable",
      "type": "function"
    },
    {
      "inputs": [
        {
          "internalType": "address",
          "name": "_user",
          "type": "address"
        }
      ],
      "name": "getNumberOfOpenTrades",
      "outputs": [
        {
          "internalType": "uint256",
          "name": "",
          "type": "uint256"
        }
      ],
      "stateMutability": "view",
      "type": "function",
      "constant": true
    },
    {
      "inputs": [
        {
          "internalType": "uint256",
          "name": "_tradeIndex",
          "type": "uint256"
        },
        {
          "internalType": "address",
          "name": "_trader",
          "type": "address"
        }
      ],
      "name": "getOpenTradeDetails",
      "outputs": [
        {
          "components": [
            {
              "internalType": "address",
              "name": "trader",
              "type": "address"
            },
            {
              "internalType": "uint256",
              "name": "tradeId",
              "type": "uint256"
            },
            {
              "internalType": "uint256",
              "name": "pair",
              "type": "uint256"
            },
            {
              "internalType": "uint256",
              "name": "openTimestamp",
              "type": "uint256"
            },
            {
              "internalType": "uint256",
              "name": "orderType",
              "type": "uint256"
            },
            {
              "internalType": "int256",
              "name": "leverageAmount",
              "type": "int256"
            },
            {
              "internalType": "int256",
              "name": "collateral",
              "type": "int256"
            },
            {
              "internalType": "int256",
              "name": "entryPrice",
              "type": "int256"
            },
            {
              "internalType": "int256",
              "name": "takeProfit",
              "type": "int256"
            },
            {
              "internalType": "int256",
              "name": "stopLoss",
              "type": "int256"
            },
            {
              "internalType": "int256",
              "name": "liquidationPrice",
              "type": "int256"
            }
          ],
          "internalType": "struct TradingStorage.openTrade",
          "name": "",
          "type": "tuple"
        }
      ],
      "stateMutability": "view",
      "type": "function",
      "constant": true
    },
    {
      "inputs": [
        {
          "internalType": "address",
          "name": "_trader",
          "type": "address"
        }
      ],
      "name": "getAllOpenTrades",
      "outputs": [
        {
          "components": [
            {
              "internalType": "address",
              "name": "trader",
              "type": "address"
            },
            {
              "internalType": "uint256",
              "name": "tradeId",
              "type": "uint256"
            },
            {
              "internalType": "uint256",
              "name": "pair",
              "type": "uint256"
            },
            {
              "internalType": "uint256",
              "name": "openTimestamp",
              "type": "uint256"
            },
            {
              "internalType": "uint256",
              "name": "orderType",
              "type": "uint256"
            },
            {
              "internalType": "int256",
              "name": "leverageAmount",
              "type": "int256"
            },
            {
              "internalType": "int256",
              "name": "collateral",
              "type": "int256"
            },
            {
              "internalType": "int256",
              "name": "entryPrice",
              "type": "int256"
            },
            {
              "internalType": "int256",
              "name": "takeProfit",
              "type": "int256"
            },
            {
              "internalType": "int256",
              "name": "stopLoss",
              "type": "int256"
            },
            {
              "internalType": "int256",
              "name": "liquidationPrice",
              "type": "int256"
            }
          ],
          "internalType": "struct TradingStorage.openTrade[]",
          "name": "",
          "type": "tuple[]"
        }
      ],
      "stateMutability": "view",
      "type": "function",
      "constant": true
    },
    {
      "inputs": [
        {
          "internalType": "address",
          "name": "_trader",
          "type": "address"
        }
      ],
      "name": "getAllClosedTrades",
      "outputs": [
        {
          "components": [
            {
              "internalType": "address",
              "name": "trader",
              "type": "address"
            },
            {
              "internalType": "uint256",
              "name": "tradeId",
              "type": "uint256"
            },
            {
              "internalType": "uint256",
              "name": "pair",
              "type": "uint256"
            },
            {
              "internalType": "uint256",
              "name": "openTimestamp",
              "type": "uint256"
            },
            {
              "internalType": "uint256",
              "name": "closeTimestamp",
              "type": "uint256"
            },
            {
              "internalType": "uint256",
              "name": "orderType",
              "type": "uint256"
            },
            {
              "internalType": "int256",
              "name": "leverageAmount",
              "type": "int256"
            },
            {
              "internalType": "int256",
              "name": "collateral",
              "type": "int256"
            },
            {
              "internalType": "int256",
              "name": "entryPrice",
              "type": "int256"
            },
            {
              "internalType": "int256",
              "name": "exitPrice",
              "type": "int256"
            },
            {
              "internalType": "int256",
              "name": "pnl",
              "type": "int256"
            }
          ],
          "internalType": "struct TradingStorage.closedTrade[]",
          "name": "",
          "type": "tuple[]"
        }
      ],
      "stateMutability": "view",
      "type": "function",
      "constant": true
    },
    {
      "inputs": [
        {
          "internalType": "uint256",
          "name": "_tradeId",
          "type": "uint256"
        },
        {
          "internalType": "address",
          "name": "_trader",
          "type": "address"
        }
      ],
      "name": "getClosedTradeDetails",
      "outputs": [
        {
          "components": [
            {
              "internalType": "address",
              "name": "trader",
              "type": "address"
            },
            {
              "internalType": "uint256",
              "name": "tradeId",
              "type": "uint256"
            },
            {
              "internalType": "uint256",
              "name": "pair",
              "type": "uint256"
            },
            {
              "internalType": "uint256",
              "name": "openTimestamp",
              "type": "uint256"
            },
            {
              "internalType": "uint256",
              "name": "closeTimestamp",
              "type": "uint256"
            },
            {
              "internalType": "uint256",
              "name": "orderType",
              "type": "uint256"
            },
            {
              "internalType": "int256",
              "name": "leverageAmount",
              "type": "int256"
            },
            {
              "internalType": "int256",
              "name": "collateral",
              "type": "int256"
            },
            {
              "internalType": "int256",
              "name": "entryPrice",
              "type": "int256"
            },
            {
              "internalType": "int256",
              "name": "exitPrice",
              "type": "int256"
            },
            {
              "internalType": "int256",
              "name": "pnl",
              "type": "int256"
            }
          ],
          "internalType": "struct TradingStorage.closedTrade",
          "name": "",
          "type": "tuple"
        }
      ],
      "stateMutability": "view",
      "type": "function",
      "constant": true
    },
    {
      "inputs": [
        {
          "internalType": "uint256",
          "name": "_tradeId",
          "type": "uint256"
        },
        {
          "internalType": "address",
          "name": "_trader",
          "type": "address"
        }
      ],
      "name": "getPair",
      "outputs": [
        {
          "internalType": "uint256",
          "name": "",
          "type": "uint256"
        }
      ],
      "stateMutability": "view",
      "type": "function",
      "constant": true
    },
    {
      "inputs": [
        {
          "internalType": "uint256",
          "name": "_tradeIndex",
          "type": "uint256"
        },
        {
          "internalType": "address",
          "name": "_trader",
          "type": "address"
        },
        {
          "internalType": "int256",
          "name": "_exitPrice",
          "type": "int256"
        },
        {
          "internalType": "int256",
          "name": "_pnl",
          "type": "int256"
        }
      ],
      "name": "updateTrade",
      "outputs": [
        {
          "internalType": "uint256",
          "name": "",
          "type": "uint256"
        }
      ],
      "stateMutability": "nonpayable",
      "type": "function"
    },
    {
      "inputs": [
        {
          "internalType": "address",
          "name": "_trader",
          "type": "address"
        },
        {
          "internalType": "uint256",
          "name": "_pair",
          "type": "uint256"
        },
        {
          "internalType": "uint256",
          "name": "_timestamp",
          "type": "uint256"
        },
        {
          "internalType": "uint256",
          "name": "_orderType",
          "type": "uint256"
        },
        {
          "internalType": "int256",
          "name": "_leverageAmount",
          "type": "int256"
        },
        {
          "internalType": "int256",
          "name": "_collateral",
          "type": "int256"
        },
        {
          "internalType": "int256",
          "name": "_entryPrice",
          "type": "int256"
        },
        {
          "internalType": "int256",
          "name": "_takeProfit",
          "type": "int256"
        },
        {
          "internalType": "int256",
          "name": "_stopLoss",
          "type": "int256"
        },
        {
          "internalType": "int256",
          "name": "_liquidationPrice",
          "type": "int256"
        }
      ],
      "name": "addTradeDetails",
      "outputs": [
        {
          "internalType": "uint256",
          "name": "",
          "type": "uint256"
        }
      ],
      "stateMutability": "nonpayable",
      "type": "function"
    }
  ],
  "bytecode": "0x608060405234801561001057600080fd5b5061118f806100206000396000f3fe608060405234801561001057600080fd5b50600436106100cf5760003560e01c80637314b6641161008c57806397d4bedc1161006657806397d4bedc14610232578063cc85ec2014610245578063cf1e0c3514610258578063f812d4381461026b57600080fd5b80637314b664146101d657806382a6a883146101ff5780638b686e0c1461021f57600080fd5b8063074434d8146100d4578063129e8603146100fd57806313d62f9d1461011e5780631df615b51461018e578063584805cc146101ae57806363da80f9146101c3575b600080fd5b6100e76100e2366004610eb1565b6102cc565b6040516100f49190610f4e565b60405180910390f35b61011061010b366004610f9d565b6103b6565b6040519081526020016100f4565b61013161012c366004610fc9565b610484565b604080516001600160a01b03909c168c5260208c019a909a52988a01979097526060890195909552608088019390935260a087019190915260c086015260e0850152610100840152610120830152610140820152610160016100f4565b6101a161019c366004610eb1565b610504565b6040516100f49190610ff3565b6101c16101bc366004610fc9565b6105e0565b005b6101106101d1366004611036565b610660565b6101106101e4366004610eb1565b6001600160a01b031660009081526002602052604090205490565b61021261020d366004610f9d565b610a71565b6040516100f49190611071565b61013161022d366004611080565b610b9e565b610131610240366004610fc9565b610c13565b610212610253366004610f9d565b610c2f565b610110610266366004611099565b610cbf565b61027e610279366004610fc9565b610e23565b604080516001600160a01b03909a168a5260208a0198909852968801959095526060870193909352608086019190915260a085015260c084015260e0830152610100820152610120016100f4565b6001600160a01b0381166000908152600360209081526040808320805482518185028101850190935280835260609492939192909184015b828210156103ab5760008481526020908190206040805161016081018252600b860290920180546001600160a01b03168352600180820154848601526002820154928401929092526003810154606084015260048101546080840152600581015460a0840152600681015460c0840152600781015460e084015260088101546101008401526009810154610120840152600a01546101408301529083529092019101610304565b505050509050919050565b6001600160a01b03811660009081526002602052604081208054829190859081106103e3576103e3611108565b60009182526020918290206040805161016081018252600b90930290910180546001600160a01b0316835260018101549383019390935260028301549082018190526003830154606083015260048301546080830152600583015460a0830152600683015460c0830152600783015460e083015260088301546101008301526009830154610120830152600a90920154610140909101529150505b92915050565b600360205281600052604060002081815481106104a057600080fd5b60009182526020909120600b9091020180546001820154600283015460038401546004850154600586015460068701546007880154600889015460098a0154600a909a01546001600160a01b039099169b509699509497939692959194909390928b565b6001600160a01b03811660009081526002602090815260408083208054825181850281018501909352808352606094929391929091840182156103ab5760008481526020908190206040805161016081018252600b860290920180546001600160a01b03168352600180820154848601526002820154928401929092526003810154606084015260048101546080840152600581015460a0840152600681015460c0840152600781015460e084015260088101546101008401526009810154610120840152600a01546101408301529083529092019101610304565b6001600160a01b038216600090815260046020526040902080548290811061060a5761060a611108565b60009182526020822060099091020180546001600160a01b031916815560018101829055600281018290556003810182905560048101829055600581018290556006810182905560078101829055600801555050565b6001600160a01b038316600090815260026020526040812080548291908790811061068d5761068d611108565b90600052602060002090600b0201604051806101600160405290816000820160009054906101000a90046001600160a01b03166001600160a01b03166001600160a01b03168152602001600182015481526020016002820154815260200160038201548152602001600482015481526020016005820154815260200160068201548152602001600782015481526020016008820154815260200160098201548152602001600a820154815250509050600060405180610160016040528083600001516001600160a01b031681526020018881526020018360400151815260200183606001518152602001428152602001836080015181526020018360a0015181526020018360c0015181526020018360e00151815260200186815260200185815250905060036000876001600160a01b03166001600160a01b031681526020019081526020016000208190806001815401808255809150506001900390600052602060002090600b020160009091909190915060008201518160000160006101000a8154816001600160a01b0302191690836001600160a01b031602179055506020820151816001015560408201518160020155606082015181600301556080820151816004015560a0820151816005015560c0820151816006015560e082015181600701556101008201518160080155610120820151816009015561014082015181600a0155505060026000876001600160a01b03166001600160a01b03168152602001908152602001600020600160026000896001600160a01b03166001600160a01b03168152602001908152602001600020805490506108f0919061111e565b8154811061090057610900611108565b90600052602060002090600b020160026000886001600160a01b03166001600160a01b03168152602001908152602001600020888154811061094457610944611108565b600091825260208083208454600b9093020180546001600160a01b0319166001600160a01b03938416178155600180860154908201556002808601548183015560038087015490830155600480870154908301556005808701549083015560068087015490830155600780870154908301556008808701549083015560098087015490830155600a958601549590910194909455908916825291909152604090208054806109f4576109f4611143565b600082815260208120600b6000199093019283020180546001600160a01b0319168155600181018290556002810182905560038101829055600481018290556005810182905560068101829055600781018290556008810182905560098101829055600a018190559155610a66905490565b979650505050505050565b610ad760405180610160016040528060006001600160a01b03168152602001600081526020016000815260200160008152602001600081526020016000815260200160008152602001600081526020016000815260200160008152602001600081525090565b6001600160a01b0382166000908152600360205260408120805485908110610b0157610b01611108565b60009182526020918290206040805161016081018252600b90930290910180546001600160a01b031683526001810154938301939093526002830154908201526003820154606082015260048201546080820152600582015460a0820152600682015460c0820152600782015460e082015260088201546101008201526009820154610120820152600a9091015461014082015291505092915050565b60018181548110610bae57600080fd5b60009182526020909120600b9091020180546001820154600283015460038401546004850154600586015460068701546007880154600889015460098a0154600a909a01546001600160a01b039099169a50969895979496939592949193909290918b565b600260205281600052604060002081815481106104a057600080fd5b610c9560405180610160016040528060006001600160a01b03168152602001600081526020016000815260200160008152602001600081526020016000815260200160008152602001600081526020016000815260200160008152602001600081525090565b6001600160a01b0382166000908152600260205260408120805485908110610b0157610b01611108565b600080610ccb60005490565b9050600260008d6001600160a01b03166001600160a01b031681526020019081526020016000206040518061016001604052808e6001600160a01b031681526020018381526020018d81526020018c81526020018b81526020018a81526020018981526020018881526020018781526020018681526020018581525090806001815401808255809150506001900390600052602060002090600b020160009091909190915060008201518160000160006101000a8154816001600160a01b0302191690836001600160a01b031602179055506020820151816001015560408201518160020155606082015181600301556080820151816004015560a0820151816005015560c0820151816006015560e082015181600701556101008201518160080155610120820151816009015561014082015181600a01555050610e14600080546001019055565b9b9a5050505050505050505050565b60046020528160005260406000208181548110610e3f57600080fd5b60009182526020909120600990910201805460018201546002830154600384015460048501546005860154600687015460078801546008909801546001600160a01b039097169950949750929591949093919089565b80356001600160a01b0381168114610eac57600080fd5b919050565b600060208284031215610ec357600080fd5b610ecc82610e95565b9392505050565b80516001600160a01b031682526020810151602083015260408101516040830152606081015160608301526080810151608083015260a081015160a083015260c081015160c083015260e081015160e08301526101008082015181840152506101208082015181840152506101408082015181840152505050565b6020808252825182820181905260009190848201906040850190845b81811015610f9157610f7d838551610ed3565b928401926101609290920191600101610f6a565b50909695505050505050565b60008060408385031215610fb057600080fd5b82359150610fc060208401610e95565b90509250929050565b60008060408385031215610fdc57600080fd5b610fe583610e95565b946020939093013593505050565b6020808252825182820181905260009190848201906040850190845b81811015610f9157611022838551610ed3565b92840192610160929092019160010161100f565b6000806000806080858703121561104c57600080fd5b8435935061105c60208601610e95565b93969395505050506040820135916060013590565b610160810161047e8284610ed3565b60006020828403121561109257600080fd5b5035919050565b6000806000806000806000806000806101408b8d0312156110b957600080fd5b6110c28b610e95565b9c60208c01359c5060408c01359b60608101359b5060808101359a5060a0810135995060c0810135985060e0810135975061010081013596506101200135945092505050565b634e487b7160e01b600052603260045260246000fd5b60008282101561113e57634e487b7160e01b600052601160045260246000fd5b500390565b634e487b7160e01b600052603160045260246000fdfea26469706673582212208991b07d1199d888a3d3ed5c4e0edd7d274f6ef721ac41bdf64e4f30327577fd64736f6c634300080f0033",
  "immutableReferences": {},
  "source": "// SPDX-License-Identifier: MIT\npragma solidity ^0.8.15;\n\nimport \"@openzeppelin/contracts/utils/Counters.sol\";\n\ncontract TradingStorage {\n    using Counters for Counters.Counter;\n    Counters.Counter private tradeIds;\n\n\n    // Trade struct that contains the information about the trade\n    struct openTrade {\n        address trader;\n        uint tradeId;\n        uint pair;\n        uint openTimestamp;\n        uint orderType; //  0 - LIMIT_LONG /  1 - LIMIT_SHORT /  2 - MARKET_LONG /  3 - LIMIT_SHORT\n        int leverageAmount;\n        int collateral;\n        int entryPrice;\n        int takeProfit;\n        int stopLoss;\n        int liquidationPrice;\n    }\n\n    struct closedTrade {\n        address trader;\n        uint tradeId;\n        uint pair;\n        uint openTimestamp;\n        uint closeTimestamp;\n        uint orderType; //  0 - LIMIT_LONG /  1 - LIMIT_SHORT /  2 - MARKET_LONG /  3 - MARKET_SHORT\n        int leverageAmount;\n        int collateral;\n        int entryPrice;\n        int exitPrice;\n        int pnl;\n    }\n\n    struct pendingLimitOrder {\n        address trader;\n        bytes32 pair;\n        uint initializedTimestamp;\n        uint orderType; // 0 LIMIT_LONG / 1 LIMIT_SHORT\n        uint leverageAmount;\n        uint collateral;\n        uint limitPrice;\n        uint takeProfit;\n        uint stopLoss;\n    }\n\n    openTrade[] public allOpenTrades;\n\n    // Mapping of trades currently open by a user\n    mapping(address => openTrade[]) public usersOpenTrades;\n    //Mapping of all closed trades of user\n    mapping(address => closedTrade[]) public usersClosedTrades;\n    // Mapping of users pending limit orders\n    mapping(address => pendingLimitOrder[]) public usersPendingLimitOrders;\n    // Mapping of trades the user has closed\n\n    // cancel a pending limit order\n    function cancelPendingLimitOrder(address _trader, uint _index) public {\n        delete usersPendingLimitOrders[_trader][_index];\n    }\n\n    //return the number of trades a user has open\n    function getNumberOfOpenTrades(address _user) public view returns (uint) {\n        return usersOpenTrades[_user].length;\n    }\n\n    //return all the trade information of a specific open trade\n    function getOpenTradeDetails(uint _tradeIndex, address _trader)\n        public\n        view\n        returns (openTrade memory)\n    {\n        openTrade memory _trade = usersOpenTrades[_trader][_tradeIndex];\n        return _trade;\n    }\n\n    function getAllOpenTrades(address _trader)\n        public \n        view\n        returns (openTrade[] memory)\n    {\n        return usersOpenTrades[_trader];\n    }\n\n    function getAllClosedTrades(address _trader)\n        public\n        view\n        returns (closedTrade[] memory)\n    {\n        return usersClosedTrades[_trader];\n    }\n\n    //return all the trade information of a specific closed trade\n    function getClosedTradeDetails(uint _tradeId, address _trader)\n        public\n        view\n        returns (closedTrade memory)\n    {\n        closedTrade memory _trade = usersClosedTrades[_trader][_tradeId];\n        return _trade;\n    }\n\n    // a fucntion to return the pair name of a users open trade\n    function getPair(uint _tradeId, address _trader)\n        public\n        view\n        returns (uint)\n    {\n        openTrade memory _trade = usersOpenTrades[_trader][_tradeId];\n        return _trade.pair;\n    }\n\n    //delete the trade from the openTrades array and add it to the closedTrades mapping\n    function updateTrade(\n        uint _tradeIndex,\n        address _trader,\n        int _exitPrice,\n        int _pnl\n    ) public returns(uint) {\n        openTrade memory _trade = usersOpenTrades[_trader][_tradeIndex];\n        // tradeIds.increment();\n        closedTrade memory _closedTrade = closedTrade(\n            _trade.trader,\n            _tradeIndex,\n            _trade.pair,\n            _trade.openTimestamp,\n            block.timestamp,\n            _trade.orderType,\n            _trade.leverageAmount,\n            _trade.collateral,\n            _trade.entryPrice,\n            _exitPrice,\n            _pnl\n        );\n        usersClosedTrades[_trader].push(_closedTrade);\n        usersOpenTrades[_trader][_tradeIndex] = usersOpenTrades[_trader][usersOpenTrades[_trader].length - 1];\n        usersOpenTrades[_trader].pop();\n\n        return tradeIds.current();\n    }\n\n    //add trade details to the mapping from a exteranl contract\n    function addTradeDetails(\n        address _trader,\n        uint _pair,\n        uint _timestamp,\n        uint _orderType,\n        int _leverageAmount,\n        int _collateral,\n        int _entryPrice,\n        int _takeProfit, // 1e8 from front end\n        int _stopLoss, // 1e8 from front end\n        int _liquidationPrice\n    ) external returns (uint) {\n\n        uint tradeIndex = tradeIds.current();\n        usersOpenTrades[_trader].push(\n            openTrade(\n                _trader,\n                tradeIndex,\n                _pair,\n                _timestamp,\n                _orderType,\n                _leverageAmount,\n                _collateral,\n                _entryPrice,\n                _takeProfit,\n                _stopLoss,\n                _liquidationPrice\n            )\n\n            \n        );\n        tradeIds.increment();\n        \n        return tradeIndex; // debugging purposes\n    }\n}",
  "sourcePath": "/Users/cobra/Desktop/APED/truffle-aped/truffle-trading-contracts/contracts/TradingStorage.sol",
  "compiler": {
    "name": "solc",
    "version": "0.8.15+commit.e14f2714.Emscripten.clang"
  },
  "schemaVersion": "3.4.11",
  "updatedAt": "2023-02-13T15:21:42.482Z",
  "networkType": "ethereum",
  "devdoc": {
    "kind": "dev",
    "methods": {},
    "version": 1
  },
  "userdoc": {
    "kind": "user",
    "methods": {},
    "version": 1
  }
}