{
  "contractName": "TradingStorage",
  "abi": [
    {
      "inputs": [
        {
          "internalType": "uint256",
          "name": "",
          "type": "uint256"
        }
      ],
      "name": "allTraders",
      "outputs": [
        {
          "internalType": "address",
          "name": "",
          "type": "address"
        }
      ],
      "stateMutability": "view",
      "type": "function",
      "constant": true
    },
    {
      "inputs": [
        {
          "internalType": "address",
          "name": "",
          "type": "address"
        },
        {
          "internalType": "uint256",
          "name": "",
          "type": "uint256"
        }
      ],
      "name": "usersClosedTrades",
      "outputs": [
        {
          "internalType": "address",
          "name": "trader",
          "type": "address"
        },
        {
          "internalType": "uint256",
          "name": "tradeId",
          "type": "uint256"
        },
        {
          "internalType": "uint256",
          "name": "pair",
          "type": "uint256"
        },
        {
          "internalType": "uint256",
          "name": "openTimestamp",
          "type": "uint256"
        },
        {
          "internalType": "uint256",
          "name": "closeTimestamp",
          "type": "uint256"
        },
        {
          "internalType": "uint256",
          "name": "orderType",
          "type": "uint256"
        },
        {
          "internalType": "int256",
          "name": "leverageAmount",
          "type": "int256"
        },
        {
          "internalType": "int256",
          "name": "collateral",
          "type": "int256"
        },
        {
          "internalType": "int256",
          "name": "entryPrice",
          "type": "int256"
        },
        {
          "internalType": "int256",
          "name": "exitPrice",
          "type": "int256"
        },
        {
          "internalType": "int256",
          "name": "pnl",
          "type": "int256"
        }
      ],
      "stateMutability": "view",
      "type": "function",
      "constant": true
    },
    {
      "inputs": [
        {
          "internalType": "address",
          "name": "",
          "type": "address"
        },
        {
          "internalType": "uint256",
          "name": "",
          "type": "uint256"
        }
      ],
      "name": "usersOpenTrades",
      "outputs": [
        {
          "internalType": "address",
          "name": "trader",
          "type": "address"
        },
        {
          "internalType": "uint256",
          "name": "tradeId",
          "type": "uint256"
        },
        {
          "internalType": "uint256",
          "name": "pair",
          "type": "uint256"
        },
        {
          "internalType": "uint256",
          "name": "openTimestamp",
          "type": "uint256"
        },
        {
          "internalType": "uint256",
          "name": "orderType",
          "type": "uint256"
        },
        {
          "internalType": "int256",
          "name": "leverageAmount",
          "type": "int256"
        },
        {
          "internalType": "int256",
          "name": "collateral",
          "type": "int256"
        },
        {
          "internalType": "int256",
          "name": "entryPrice",
          "type": "int256"
        },
        {
          "internalType": "int256",
          "name": "takeProfit",
          "type": "int256"
        },
        {
          "internalType": "int256",
          "name": "stopLoss",
          "type": "int256"
        },
        {
          "internalType": "int256",
          "name": "liquidationPrice",
          "type": "int256"
        }
      ],
      "stateMutability": "view",
      "type": "function",
      "constant": true
    },
    {
      "inputs": [
        {
          "internalType": "address",
          "name": "",
          "type": "address"
        },
        {
          "internalType": "uint256",
          "name": "",
          "type": "uint256"
        }
      ],
      "name": "usersPendingLimitOrders",
      "outputs": [
        {
          "internalType": "address",
          "name": "trader",
          "type": "address"
        },
        {
          "internalType": "bytes32",
          "name": "pair",
          "type": "bytes32"
        },
        {
          "internalType": "uint256",
          "name": "initializedTimestamp",
          "type": "uint256"
        },
        {
          "internalType": "uint256",
          "name": "orderType",
          "type": "uint256"
        },
        {
          "internalType": "uint256",
          "name": "leverageAmount",
          "type": "uint256"
        },
        {
          "internalType": "uint256",
          "name": "collateral",
          "type": "uint256"
        },
        {
          "internalType": "uint256",
          "name": "limitPrice",
          "type": "uint256"
        },
        {
          "internalType": "uint256",
          "name": "takeProfit",
          "type": "uint256"
        },
        {
          "internalType": "uint256",
          "name": "stopLoss",
          "type": "uint256"
        }
      ],
      "stateMutability": "view",
      "type": "function",
      "constant": true
    },
    {
      "inputs": [
        {
          "internalType": "address",
          "name": "_trader",
          "type": "address"
        },
        {
          "internalType": "uint256",
          "name": "_index",
          "type": "uint256"
        }
      ],
      "name": "cancelPendingLimitOrder",
      "outputs": [],
      "stateMutability": "nonpayable",
      "type": "function"
    },
    {
      "inputs": [
        {
          "internalType": "address",
          "name": "_user",
          "type": "address"
        }
      ],
      "name": "getNumberOfOpenTrades",
      "outputs": [
        {
          "internalType": "uint256",
          "name": "",
          "type": "uint256"
        }
      ],
      "stateMutability": "view",
      "type": "function",
      "constant": true
    },
    {
      "inputs": [
        {
          "internalType": "uint256",
          "name": "_tradeIndex",
          "type": "uint256"
        },
        {
          "internalType": "address",
          "name": "_trader",
          "type": "address"
        }
      ],
      "name": "getOpenTradeDetails",
      "outputs": [
        {
          "components": [
            {
              "internalType": "address",
              "name": "trader",
              "type": "address"
            },
            {
              "internalType": "uint256",
              "name": "tradeId",
              "type": "uint256"
            },
            {
              "internalType": "uint256",
              "name": "pair",
              "type": "uint256"
            },
            {
              "internalType": "uint256",
              "name": "openTimestamp",
              "type": "uint256"
            },
            {
              "internalType": "uint256",
              "name": "orderType",
              "type": "uint256"
            },
            {
              "internalType": "int256",
              "name": "leverageAmount",
              "type": "int256"
            },
            {
              "internalType": "int256",
              "name": "collateral",
              "type": "int256"
            },
            {
              "internalType": "int256",
              "name": "entryPrice",
              "type": "int256"
            },
            {
              "internalType": "int256",
              "name": "takeProfit",
              "type": "int256"
            },
            {
              "internalType": "int256",
              "name": "stopLoss",
              "type": "int256"
            },
            {
              "internalType": "int256",
              "name": "liquidationPrice",
              "type": "int256"
            }
          ],
          "internalType": "struct TradingStorage.openTrade",
          "name": "",
          "type": "tuple"
        }
      ],
      "stateMutability": "view",
      "type": "function",
      "constant": true
    },
    {
      "inputs": [
        {
          "internalType": "address",
          "name": "_trader",
          "type": "address"
        }
      ],
      "name": "getAllOpenTrades",
      "outputs": [
        {
          "components": [
            {
              "internalType": "address",
              "name": "trader",
              "type": "address"
            },
            {
              "internalType": "uint256",
              "name": "tradeId",
              "type": "uint256"
            },
            {
              "internalType": "uint256",
              "name": "pair",
              "type": "uint256"
            },
            {
              "internalType": "uint256",
              "name": "openTimestamp",
              "type": "uint256"
            },
            {
              "internalType": "uint256",
              "name": "orderType",
              "type": "uint256"
            },
            {
              "internalType": "int256",
              "name": "leverageAmount",
              "type": "int256"
            },
            {
              "internalType": "int256",
              "name": "collateral",
              "type": "int256"
            },
            {
              "internalType": "int256",
              "name": "entryPrice",
              "type": "int256"
            },
            {
              "internalType": "int256",
              "name": "takeProfit",
              "type": "int256"
            },
            {
              "internalType": "int256",
              "name": "stopLoss",
              "type": "int256"
            },
            {
              "internalType": "int256",
              "name": "liquidationPrice",
              "type": "int256"
            }
          ],
          "internalType": "struct TradingStorage.openTrade[]",
          "name": "",
          "type": "tuple[]"
        }
      ],
      "stateMutability": "view",
      "type": "function",
      "constant": true
    },
    {
      "inputs": [
        {
          "internalType": "address",
          "name": "_trader",
          "type": "address"
        }
      ],
      "name": "getAllClosedTrades",
      "outputs": [
        {
          "components": [
            {
              "internalType": "address",
              "name": "trader",
              "type": "address"
            },
            {
              "internalType": "uint256",
              "name": "tradeId",
              "type": "uint256"
            },
            {
              "internalType": "uint256",
              "name": "pair",
              "type": "uint256"
            },
            {
              "internalType": "uint256",
              "name": "openTimestamp",
              "type": "uint256"
            },
            {
              "internalType": "uint256",
              "name": "closeTimestamp",
              "type": "uint256"
            },
            {
              "internalType": "uint256",
              "name": "orderType",
              "type": "uint256"
            },
            {
              "internalType": "int256",
              "name": "leverageAmount",
              "type": "int256"
            },
            {
              "internalType": "int256",
              "name": "collateral",
              "type": "int256"
            },
            {
              "internalType": "int256",
              "name": "entryPrice",
              "type": "int256"
            },
            {
              "internalType": "int256",
              "name": "exitPrice",
              "type": "int256"
            },
            {
              "internalType": "int256",
              "name": "pnl",
              "type": "int256"
            }
          ],
          "internalType": "struct TradingStorage.closedTrade[]",
          "name": "",
          "type": "tuple[]"
        }
      ],
      "stateMutability": "view",
      "type": "function",
      "constant": true
    },
    {
      "inputs": [
        {
          "internalType": "uint256",
          "name": "_tradeId",
          "type": "uint256"
        },
        {
          "internalType": "address",
          "name": "_trader",
          "type": "address"
        }
      ],
      "name": "getClosedTradeDetails",
      "outputs": [
        {
          "components": [
            {
              "internalType": "address",
              "name": "trader",
              "type": "address"
            },
            {
              "internalType": "uint256",
              "name": "tradeId",
              "type": "uint256"
            },
            {
              "internalType": "uint256",
              "name": "pair",
              "type": "uint256"
            },
            {
              "internalType": "uint256",
              "name": "openTimestamp",
              "type": "uint256"
            },
            {
              "internalType": "uint256",
              "name": "closeTimestamp",
              "type": "uint256"
            },
            {
              "internalType": "uint256",
              "name": "orderType",
              "type": "uint256"
            },
            {
              "internalType": "int256",
              "name": "leverageAmount",
              "type": "int256"
            },
            {
              "internalType": "int256",
              "name": "collateral",
              "type": "int256"
            },
            {
              "internalType": "int256",
              "name": "entryPrice",
              "type": "int256"
            },
            {
              "internalType": "int256",
              "name": "exitPrice",
              "type": "int256"
            },
            {
              "internalType": "int256",
              "name": "pnl",
              "type": "int256"
            }
          ],
          "internalType": "struct TradingStorage.closedTrade",
          "name": "",
          "type": "tuple"
        }
      ],
      "stateMutability": "view",
      "type": "function",
      "constant": true
    },
    {
      "inputs": [
        {
          "internalType": "uint256",
          "name": "_tradeId",
          "type": "uint256"
        },
        {
          "internalType": "address",
          "name": "_trader",
          "type": "address"
        }
      ],
      "name": "getPair",
      "outputs": [
        {
          "internalType": "uint256",
          "name": "",
          "type": "uint256"
        }
      ],
      "stateMutability": "view",
      "type": "function",
      "constant": true
    },
    {
      "inputs": [
        {
          "internalType": "uint256",
          "name": "_tradeIndex",
          "type": "uint256"
        },
        {
          "internalType": "address",
          "name": "_trader",
          "type": "address"
        },
        {
          "internalType": "int256",
          "name": "_exitPrice",
          "type": "int256"
        },
        {
          "internalType": "int256",
          "name": "_pnl",
          "type": "int256"
        }
      ],
      "name": "updateTrade",
      "outputs": [
        {
          "internalType": "uint256",
          "name": "",
          "type": "uint256"
        }
      ],
      "stateMutability": "nonpayable",
      "type": "function"
    },
    {
      "inputs": [
        {
          "internalType": "address",
          "name": "_trader",
          "type": "address"
        },
        {
          "internalType": "uint256",
          "name": "_pair",
          "type": "uint256"
        },
        {
          "internalType": "uint256",
          "name": "_timestamp",
          "type": "uint256"
        },
        {
          "internalType": "uint256",
          "name": "_orderType",
          "type": "uint256"
        },
        {
          "internalType": "int256",
          "name": "_leverageAmount",
          "type": "int256"
        },
        {
          "internalType": "int256",
          "name": "_collateral",
          "type": "int256"
        },
        {
          "internalType": "int256",
          "name": "_entryPrice",
          "type": "int256"
        },
        {
          "internalType": "int256",
          "name": "_takeProfit",
          "type": "int256"
        },
        {
          "internalType": "int256",
          "name": "_stopLoss",
          "type": "int256"
        },
        {
          "internalType": "int256",
          "name": "_liquidationPrice",
          "type": "int256"
        }
      ],
      "name": "addTradeDetails",
      "outputs": [
        {
          "internalType": "uint256",
          "name": "",
          "type": "uint256"
        }
      ],
      "stateMutability": "nonpayable",
      "type": "function"
    },
    {
      "inputs": [
        {
          "internalType": "address",
          "name": "_trader",
          "type": "address"
        },
        {
          "internalType": "uint256",
          "name": "_tradeIndex",
          "type": "uint256"
        }
      ],
      "name": "compareTakeProfits",
      "outputs": [
        {
          "internalType": "bool",
          "name": "",
          "type": "bool"
        }
      ],
      "stateMutability": "view",
      "type": "function",
      "constant": true
    },
    {
      "inputs": [
        {
          "internalType": "address",
          "name": "_trader",
          "type": "address"
        },
        {
          "internalType": "uint256",
          "name": "_tradeIndex",
          "type": "uint256"
        }
      ],
      "name": "compareStopLoss",
      "outputs": [
        {
          "internalType": "bool",
          "name": "",
          "type": "bool"
        }
      ],
      "stateMutability": "view",
      "type": "function",
      "constant": true
    },
    {
      "inputs": [
        {
          "internalType": "bytes",
          "name": "",
          "type": "bytes"
        }
      ],
      "name": "checkUpkeep",
      "outputs": [
        {
          "internalType": "bool",
          "name": "upkeepNeeded",
          "type": "bool"
        },
        {
          "internalType": "bytes",
          "name": "performData",
          "type": "bytes"
        }
      ],
      "stateMutability": "view",
      "type": "function",
      "constant": true
    },
    {
      "inputs": [
        {
          "internalType": "bytes",
          "name": "performData",
          "type": "bytes"
        }
      ],
      "name": "performUpkeep",
      "outputs": [],
      "stateMutability": "nonpayable",
      "type": "function"
    },
    {
      "inputs": [
        {
          "internalType": "contract TradingLogic",
          "name": "_tradingLogic",
          "type": "address"
        }
      ],
      "name": "setTradingLogic",
      "outputs": [],
      "stateMutability": "nonpayable",
      "type": "function"
    },
    {
      "inputs": [
        {
          "internalType": "contract MarketTradingControl",
          "name": "_tradingControl",
          "type": "address"
        }
      ],
      "name": "setMarketControl",
      "outputs": [],
      "stateMutability": "nonpayable",
      "type": "function"
    }
  ],
  "bytecode": "0x608060405234801561001057600080fd5b5061195f806100206000396000f3fe608060405234801561001057600080fd5b50600436106101215760003560e01c8063584805cc116100ad57806397d4bedc1161007157806397d4bedc1461034f578063cc85ec2014610362578063cf1e0c3514610375578063f55b6caa14610388578063f812d4381461039b57600080fd5b8063584805cc146102bf57806363da80f9146102d25780636e04ff0d146102e55780637314b6641461030657806382a6a8831461032f57600080fd5b80631df615b5116100f45780631df615b514610207578063246e71e114610227578063296c8fb11461025957806345222430146102895780634585e33b146102ac57600080fd5b80630212385f14610126578063074434d814610156578063129e86031461017657806313d62f9d14610197575b600080fd5b610139610134366004611496565b6103fc565b6040516001600160a01b0390911681526020015b60405180910390f35b6101696101643660046114c7565b610426565b60405161014d9190611566565b6101896101843660046115b5565b610510565b60405190815260200161014d565b6101aa6101a53660046115e5565b6105de565b604080516001600160a01b03909c168c5260208c019a909a52988a01979097526060890195909552608088019390935260a087019190915260c086015260e08501526101008401526101208301526101408201526101600161014d565b61021a6102153660046114c7565b61065e565b60405161014d9190611611565b6102576102353660046114c7565b600280546001600160a01b0319166001600160a01b0392909216919091179055565b005b6102576102673660046114c7565b600180546001600160a01b0319166001600160a01b0392909216919091179055565b61029c6102973660046115e5565b61073a565b604051901515815260200161014d565b6102576102ba366004611654565b6108d5565b6102576102cd3660046115e5565b610969565b6101896102e03660046116c6565b6109e9565b6102f86102f3366004611654565b610dfa565b60405161014d929190611703565b6101896103143660046114c7565b6001600160a01b031660009081526004602052604090205490565b61034261033d3660046115b5565b610f44565b60405161014d9190611762565b6101aa61035d3660046115e5565b611071565b6103426103703660046115b5565b61108d565b610189610383366004611771565b61111d565b61029c6103963660046115e5565b61132d565b6103ae6103a93660046115e5565b611424565b604080516001600160a01b03909a168a5260208a0198909852968801959095526060870193909352608086019190915260a085015260c084015260e08301526101008201526101200161014d565b6003818154811061040c57600080fd5b6000918252602090912001546001600160a01b0316905081565b6001600160a01b0381166000908152600560209081526040808320805482518185028101850190935280835260609492939192909184015b828210156105055760008481526020908190206040805161016081018252600b860290920180546001600160a01b03168352600180820154848601526002820154928401929092526003810154606084015260048101546080840152600581015460a0840152600681015460c0840152600781015460e084015260088101546101008401526009810154610120840152600a0154610140830152908352909201910161045e565b505050509050919050565b6001600160a01b038116600090815260046020526040812080548291908590811061053d5761053d6117e2565b60009182526020918290206040805161016081018252600b90930290910180546001600160a01b0316835260018101549383019390935260028301549082018190526003830154606083015260048301546080830152600583015460a0830152600683015460c0830152600783015460e083015260088301546101008301526009830154610120830152600a90920154610140909101529150505b92915050565b600560205281600052604060002081815481106105fa57600080fd5b60009182526020909120600b9091020180546001820154600283015460038401546004850154600586015460068701546007880154600889015460098a0154600a909a01546001600160a01b039099169b509699509497939692959194909390928b565b6001600160a01b03811660009081526004602090815260408083208054825181850281018501909352808352606094929391929091840182156105055760008481526020908190206040805161016081018252600b860290920180546001600160a01b03168352600180820154848601526002820154928401929092526003810154606084015260048101546080840152600581015460a0840152600681015460c0840152600781015460e084015260088101546101008401526009810154610120840152600a0154610140830152908352909201910161045e565b6001600160a01b0382166000908152600460205260408120805482919084908110610767576107676117e2565b600091825260208083206040805161016081018252600b90940290910180546001600160a01b039081168552600180830154948601949094526002820154858401819052600383015460608701526004808401546080880152600584015460a0880152600684015460c0880152600784015460e0880152600884015461010088015260098401546101208801819052600a9094015461014088015294549351630e75722360e41b8152959750959194919392169163e7572230916108319187910190815260200190565b602060405180830381865afa15801561084e573d6000803e3d6000fd5b505050506040513d601f19601f8201168201806040525081019061087291906117f8565b9050600061088261271084611827565b905060006108908285611863565b9050600061089e83866118a4565b90508084121580156108b05750818413155b156108c55760019750505050505050506105d8565b5060009998505050505050505050565b6000806108e4838501856115e5565b60025460405163c2fe93ed60e01b8152600481018390526001600160a01b038085166024830152939550919350919091169063c2fe93ed906044016020604051808303816000875af115801561093e573d6000803e3d6000fd5b505050506040513d601f19601f8201168201806040525081019061096291906117f8565b5050505050565b6001600160a01b0382166000908152600660205260409020805482908110610993576109936117e2565b60009182526020822060099091020180546001600160a01b031916815560018101829055600281018290556003810182905560048101829055600581018290556006810182905560078101829055600801555050565b6001600160a01b0383166000908152600460205260408120805482919087908110610a1657610a166117e2565b90600052602060002090600b0201604051806101600160405290816000820160009054906101000a90046001600160a01b03166001600160a01b03166001600160a01b03168152602001600182015481526020016002820154815260200160038201548152602001600482015481526020016005820154815260200160068201548152602001600782015481526020016008820154815260200160098201548152602001600a820154815250509050600060405180610160016040528083600001516001600160a01b031681526020018881526020018360400151815260200183606001518152602001428152602001836080015181526020018360a0015181526020018360c0015181526020018360e00151815260200186815260200185815250905060056000876001600160a01b03166001600160a01b031681526020019081526020016000208190806001815401808255809150506001900390600052602060002090600b020160009091909190915060008201518160000160006101000a8154816001600160a01b0302191690836001600160a01b031602179055506020820151816001015560408201518160020155606082015181600301556080820151816004015560a0820151816005015560c0820151816006015560e082015181600701556101008201518160080155610120820151816009015561014082015181600a0155505060046000876001600160a01b03166001600160a01b03168152602001908152602001600020600160046000896001600160a01b03166001600160a01b0316815260200190815260200160002080549050610c7991906118e3565b81548110610c8957610c896117e2565b90600052602060002090600b020160046000886001600160a01b03166001600160a01b031681526020019081526020016000208881548110610ccd57610ccd6117e2565b600091825260208083208454600b9093020180546001600160a01b0319166001600160a01b03938416178155600180860154908201556002808601549082015560038086015490820155600480860154818301556005808701549083015560068087015490830155600780870154908301556008808701549083015560098087015490830155600a95860154959091019490945590891682529190915260409020805480610d7d57610d7d6118fa565b600082815260208120600b6000199093019283020180546001600160a01b0319168155600181018290556002810182905560038101829055600481018290556005810182905560068101829055600781018290556008810182905560098101829055600a018190559155610def905490565b979650505050505050565b6000606060005b600354811015610f3b576000610e3d60038381548110610e2357610e236117e2565b6000918252602090912001546001600160a01b031661065e565b905060005b8151811015610f2657610e7c60038481548110610e6157610e616117e2565b6000918252602090912001546001600160a01b03168261132d565b80610eb35750610eb360038481548110610e9857610e986117e2565b6000918252602090912001546001600160a01b03168261073a565b15610f14576001945060038381548110610ecf57610ecf6117e2565b60009182526020918290200154604080516001600160a01b03909216928201929092529081018290526060016040516020818303038152906040529350505050610f3d565b80610f1e81611910565b915050610e42565b50508080610f3390611910565b915050610e01565b505b9250929050565b610faa60405180610160016040528060006001600160a01b03168152602001600081526020016000815260200160008152602001600081526020016000815260200160008152602001600081526020016000815260200160008152602001600081525090565b6001600160a01b0382166000908152600560205260408120805485908110610fd457610fd46117e2565b60009182526020918290206040805161016081018252600b90930290910180546001600160a01b031683526001810154938301939093526002830154908201526003820154606082015260048201546080820152600582015460a0820152600682015460c0820152600782015460e082015260088201546101008201526009820154610120820152600a9091015461014082015291505092915050565b600460205281600052604060002081815481106105fa57600080fd5b6110f360405180610160016040528060006001600160a01b03168152602001600081526020016000815260200160008152602001600081526020016000815260200160008152602001600081526020016000815260200160008152602001600081525090565b6001600160a01b0382166000908152600460205260408120805485908110610fd457610fd46117e2565b600080805b60035481101561117e578c6001600160a01b031660038281548110611149576111496117e2565b6000918252602090912001546001600160a01b03160361116c576001915061117e565b8061117681611910565b915050611122565b50806111d057600380546001810182556000919091527fc2575a0e9e593c00f959f8c92f12db2869c3395a3b0502d05e2516446f71f85b0180546001600160a01b0319166001600160a01b038e161790555b600080549050600460008e6001600160a01b03166001600160a01b031681526020019081526020016000206040518061016001604052808f6001600160a01b031681526020018381526020018e81526020018d81526020018c81526020018b81526020018a81526020018981526020018881526020018781526020018681525090806001815401808255809150506001900390600052602060002090600b020160009091909190915060008201518160000160006101000a8154816001600160a01b0302191690836001600160a01b031602179055506020820151816001015560408201518160020155606082015181600301556080820151816004015560a0820151816005015560c0820151816006015560e082015181600701556101008201518160080155610120820151816009015561014082015181600a0155505061131d600080546001019055565b9c9b505050505050505050505050565b6001600160a01b038216600090815260046020526040812080548291908490811061135a5761135a6117e2565b600091825260208083206040805161016081018252600b90940290910180546001600160a01b039081168552600180830154948601949094526002820154858401819052600383015460608701526004808401546080880152600584015460a0880152600684015460c0880152600784015460e0880152600884015461010088018190526009850154610120890152600a9094015461014088015294549351630e75722360e41b8152959750959194919392169163e7572230916108319187910190815260200190565b6006602052816000526040600020818154811061144057600080fd5b60009182526020909120600990910201805460018201546002830154600384015460048501546005860154600687015460078801546008909801546001600160a01b039097169950949750929591949093919089565b6000602082840312156114a857600080fd5b5035919050565b6001600160a01b03811681146114c457600080fd5b50565b6000602082840312156114d957600080fd5b81356114e4816114af565b9392505050565b80516001600160a01b031682526020810151602083015260408101516040830152606081015160608301526080810151608083015260a081015160a083015260c081015160c083015260e081015160e08301526101008082015181840152506101208082015181840152506101408082015181840152505050565b6020808252825182820181905260009190848201906040850190845b818110156115a9576115958385516114eb565b928401926101609290920191600101611582565b50909695505050505050565b600080604083850312156115c857600080fd5b8235915060208301356115da816114af565b809150509250929050565b600080604083850312156115f857600080fd5b8235611603816114af565b946020939093013593505050565b6020808252825182820181905260009190848201906040850190845b818110156115a9576116408385516114eb565b92840192610160929092019160010161162d565b6000806020838503121561166757600080fd5b823567ffffffffffffffff8082111561167f57600080fd5b818501915085601f83011261169357600080fd5b8135818111156116a257600080fd5b8660208285010111156116b457600080fd5b60209290920196919550909350505050565b600080600080608085870312156116dc57600080fd5b8435935060208501356116ee816114af565b93969395505050506040820135916060013590565b821515815260006020604081840152835180604085015260005b818110156117395785810183015185820160600152820161171d565b8181111561174b576000606083870101525b50601f01601f191692909201606001949350505050565b61016081016105d882846114eb565b6000806000806000806000806000806101408b8d03121561179157600080fd5b8a3561179c816114af565b9c60208c01359c5060408c01359b60608101359b5060808101359a5060a0810135995060c0810135985060e0810135975061010081013596506101200135945092505050565b634e487b7160e01b600052603260045260246000fd5b60006020828403121561180a57600080fd5b5051919050565b634e487b7160e01b600052601160045260246000fd5b60008261184457634e487b7160e01b600052601260045260246000fd5b600160ff1b82146000198414161561185e5761185e611811565b500590565b600080821280156001600160ff1b038490038513161561188557611885611811565b600160ff1b839003841281161561189e5761189e611811565b50500190565b60008083128015600160ff1b8501841216156118c2576118c2611811565b6001600160ff1b03840183138116156118dd576118dd611811565b50500390565b6000828210156118f5576118f5611811565b500390565b634e487b7160e01b600052603160045260246000fd5b60006001820161192257611922611811565b506001019056fea264697066735822122016413666b6ac329a790ec8dedad5844f253e5762928bedab9ff0f60e23e3f11f64736f6c634300080f0033",
  "immutableReferences": {},
  "source": "// SPDX-License-Identifier: MIT\npragma solidity ^0.8.15;\n\nimport \"@openzeppelin/contracts/utils/Counters.sol\";\nimport \"@chainlink/contracts/src/v0.8/AutomationCompatible.sol\";\nimport \"./TradingLogic.sol\";\nimport \"./MarketTradingControl.sol\";\n\ncontract TradingStorage is AutomationCompatibleInterface {\n\n\n    using Counters for Counters.Counter;\n    Counters.Counter private tradeIds;\n\n    TradingLogic internal tradingLogic;\n    MarketTradingControl internal marketTradingControl;\n\n\n\n    // Trade struct that contains the information about the trade\n    struct openTrade {\n        address trader;\n        uint tradeId;\n        uint pair;\n        uint openTimestamp; \n        uint orderType; //  0 - LIMIT_LONG /  1 - LIMIT_SHORT /  2 - MARKET_LONG /  3 - LIMIT_SHORT\n        int leverageAmount;\n        int collateral;\n        int entryPrice;\n        int takeProfit;\n        int stopLoss;\n        int liquidationPrice;\n    }\n\n    struct closedTrade {\n        address trader;\n        uint tradeId;\n        uint pair;\n        uint openTimestamp;\n        uint closeTimestamp;\n        uint orderType; //  0 - LIMIT_LONG /  1 - LIMIT_SHORT /  2 - MARKET_LONG /  3 - MARKET_SHORT\n        int leverageAmount;\n        int collateral;\n        int entryPrice;\n        int exitPrice;\n        int pnl;\n    }\n\n    struct pendingLimitOrder {\n        address trader;\n        bytes32 pair;\n        uint initializedTimestamp;\n        uint orderType; // 0 LIMIT_LONG / 1 LIMIT_SHORT\n        uint leverageAmount;\n        uint collateral;\n        uint limitPrice;\n        uint takeProfit;\n        uint stopLoss;\n    }\n\n    address[] public allTraders;\n\n    // Mapping of trades currently open by a user\n    mapping(address => openTrade[]) public usersOpenTrades;\n    //Mapping of all closed trades of user\n    mapping(address => closedTrade[]) public usersClosedTrades;\n    // Mapping of users pending limit orders\n    mapping(address => pendingLimitOrder[]) public usersPendingLimitOrders;\n    // Mapping of trades the user has closed\n\n\n\n    // cancel a pending limit order\n    function cancelPendingLimitOrder(address _trader, uint _index) public {\n        delete usersPendingLimitOrders[_trader][_index];\n    }\n\n    //return the number of trades a user has open\n    function getNumberOfOpenTrades(address _user) public view returns (uint) {\n        return usersOpenTrades[_user].length;\n    }\n\n    //return all the trade information of a specific open trade\n    function getOpenTradeDetails(uint _tradeIndex, address _trader)\n        public\n        view\n        returns (openTrade memory)\n    {\n        openTrade memory _trade = usersOpenTrades[_trader][_tradeIndex];\n        return _trade;\n    }\n\n    function getAllOpenTrades(address _trader)\n        public \n        view\n        returns (openTrade[] memory)\n    {\n        return usersOpenTrades[_trader];\n    }\n\n    function getAllClosedTrades(address _trader)\n        public\n        view\n        returns (closedTrade[] memory)\n    {\n        return usersClosedTrades[_trader];\n    }\n\n    //return all the trade information of a specific closed trade\n    function getClosedTradeDetails(uint _tradeId, address _trader)\n        public\n        view\n        returns (closedTrade memory)\n    {\n        closedTrade memory _trade = usersClosedTrades[_trader][_tradeId];\n        return _trade;\n    }\n\n    // a fucntion to return the pair name of a users open trade\n    function getPair(uint _tradeId, address _trader)\n        public\n        view\n        returns (uint)\n    {\n        openTrade memory _trade = usersOpenTrades[_trader][_tradeId];\n        return _trade.pair;\n    }\n\n    //delete the trade from the openTrades array and add it to the closedTrades mapping\n    function updateTrade(\n        uint _tradeIndex,\n        address _trader,\n        int _exitPrice,\n        int _pnl\n    ) public returns(uint) {\n        openTrade memory _trade = usersOpenTrades[_trader][_tradeIndex];\n        // tradeIds.increment();\n        closedTrade memory _closedTrade = closedTrade(\n            _trade.trader,\n            _tradeIndex,\n            _trade.pair,\n            _trade.openTimestamp,\n            block.timestamp,\n            _trade.orderType,\n            _trade.leverageAmount,\n            _trade.collateral,\n            _trade.entryPrice,\n            _exitPrice,\n            _pnl\n        );\n        usersClosedTrades[_trader].push(_closedTrade);\n        usersOpenTrades[_trader][_tradeIndex] = usersOpenTrades[_trader][usersOpenTrades[_trader].length - 1];\n        usersOpenTrades[_trader].pop();\n\n        return tradeIds.current();\n    }\n\n    //add trade details to the mapping from a exteranl contract\n    function addTradeDetails(\n        address _trader,\n        uint _pair,\n        uint _timestamp,\n        uint _orderType,\n        int _leverageAmount,\n        int _collateral,\n        int _entryPrice,\n        int _takeProfit, // 1e8 from front end\n        int _stopLoss, // 1e8 from front end\n        int _liquidationPrice\n    ) external returns (uint) {\n        \n        bool found = false;\n        for(uint256 i = 0; i < allTraders.length; i++) {\n        if(allTraders[i] == _trader) {\n            found = true;\n            break;\n        }\n       }\n       if (!found) {\n         allTraders.push(_trader);\n        }\n\n        uint tradeIndex = tradeIds.current();\n        usersOpenTrades[_trader].push(\n            openTrade(\n                _trader,\n                tradeIndex,\n                _pair,\n                _timestamp,\n                _orderType,\n                _leverageAmount,\n                _collateral,\n                _entryPrice,\n                _takeProfit,\n                _stopLoss,\n                _liquidationPrice\n            )\n\n            \n        );\n        tradeIds.increment();\n        \n        return tradeIndex; // debugging purposes\n    }\n\n    function compareTakeProfits(address _trader, uint _tradeIndex) public view returns (bool) {\n        openTrade memory _trade = usersOpenTrades[_trader][_tradeIndex];\n        uint pair = _trade.pair;\n        int takeProfit = _trade.takeProfit;\n\n        int currentPrice = tradingLogic.getPrice(pair);\n\n        int deviationPercent = takeProfit / 10000;\n\n        int upperLimit = takeProfit + deviationPercent;\n        int lowerLimit = takeProfit - deviationPercent;\n\n        if(currentPrice >= lowerLimit && currentPrice <= upperLimit) {\n            return true;\n        }\n\n        return false;\n\n    }\n\n    function compareStopLoss(address _trader, uint _tradeIndex) public view returns (bool) {\n        openTrade memory _trade = usersOpenTrades[_trader][_tradeIndex];\n        uint pair = _trade.pair;\n        int stopLoss = _trade.stopLoss;\n\n        int currentPrice = tradingLogic.getPrice(pair);\n\n        int deviationPercent = stopLoss / 10000;\n\n        int upperLimit = stopLoss + deviationPercent;\n        int lowerLimit = stopLoss - deviationPercent;\n\n        if(currentPrice >= lowerLimit && currentPrice <= upperLimit) {\n            return true;\n        }\n\n        return false;\n\n    }\n\n    function checkUpkeep(bytes calldata) external view override returns (bool upkeepNeeded, bytes memory performData) {\n         for(uint i = 0; i < allTraders.length; i++) {\n              openTrade[] memory trades = getAllOpenTrades(allTraders[i]);\n              for(uint j = 0; j < trades.length; j++) {\n                  if(compareTakeProfits(allTraders[i], j)\n                     || compareStopLoss(allTraders[i], j)                  \n                  ) {\n                    upkeepNeeded = true;\n                    performData = abi.encode(allTraders[i], j);\n                    return (upkeepNeeded, performData);\n                  } \n              }\n         }\n    }\n\n    function performUpkeep(bytes calldata performData) external override {\n        (address _trader, uint index) = abi.decode(performData, (address, uint));\n        marketTradingControl.closeMarketOrder(index, _trader);\n    }\n\n    function setTradingLogic(TradingLogic _tradingLogic) public {\n        tradingLogic = _tradingLogic;\n    }\n\n    function setMarketControl(MarketTradingControl _tradingControl) public {\n        marketTradingControl = _tradingControl;\n    }\n}",
  "sourcePath": "/Users/cobra/Desktop/APED/truffle-aped/truffle-trading-contracts/contracts/TradingStorage.sol",
  "compiler": {
    "name": "solc",
    "version": "0.8.15+commit.e14f2714.Emscripten.clang"
  },
  "schemaVersion": "3.4.11",
  "updatedAt": "2023-04-06T08:59:30.010Z",
  "networkType": "ethereum",
  "devdoc": {
    "kind": "dev",
    "methods": {
      "performUpkeep(bytes)": {
        "details": "The input to this method should not be trusted, and the caller of the method should not even be restricted to any single registry. Anyone should be able call it, and the input should be validated, there is no guarantee that the data passed in is the performData returned from checkUpkeep. This could happen due to malicious keepers, racing keepers, or simply a state change while the performUpkeep transaction is waiting for confirmation. Always validate the data passed in.",
        "params": {
          "performData": "is the data which was passed back from the checkData simulation. If it is encoded, it can easily be decoded into other types by calling `abi.decode`. This data should not be trusted, and should be validated against the contract's current state."
        }
      }
    },
    "version": 1
  },
  "userdoc": {
    "kind": "user",
    "methods": {
      "performUpkeep(bytes)": {
        "notice": "method that is actually executed by the keepers, via the registry. The data returned by the checkUpkeep simulation will be passed into this method to actually be executed."
      }
    },
    "version": 1
  }
}