{
  "contractName": "Vault",
  "abi": [
    {
      "inputs": [
        {
          "internalType": "contract MarketTradingControl",
          "name": "_tradingControl",
          "type": "address"
        },
        {
          "internalType": "contract TradingStorage",
          "name": "_tradingStorage",
          "type": "address"
        },
        {
          "internalType": "contract ApedToken",
          "name": "_apedToken",
          "type": "address"
        },
        {
          "internalType": "contract MockDAI",
          "name": "_daiAddress",
          "type": "address"
        },
        {
          "internalType": "contract AccessControl",
          "name": "_accessControl",
          "type": "address"
        }
      ],
      "stateMutability": "nonpayable",
      "type": "constructor"
    },
    {
      "inputs": [],
      "name": "DAI",
      "outputs": [
        {
          "internalType": "contract MockDAI",
          "name": "",
          "type": "address"
        }
      ],
      "stateMutability": "view",
      "type": "function",
      "constant": true
    },
    {
      "inputs": [
        {
          "internalType": "uint256",
          "name": "",
          "type": "uint256"
        }
      ],
      "name": "traders",
      "outputs": [
        {
          "internalType": "address",
          "name": "",
          "type": "address"
        }
      ],
      "stateMutability": "view",
      "type": "function",
      "constant": true
    },
    {
      "inputs": [
        {
          "internalType": "uint256",
          "name": "_pair",
          "type": "uint256"
        },
        {
          "internalType": "int256",
          "name": "orderType",
          "type": "int256"
        },
        {
          "internalType": "int256",
          "name": "_leverageAmount",
          "type": "int256"
        },
        {
          "internalType": "int256",
          "name": "_collateral",
          "type": "int256"
        },
        {
          "internalType": "int256",
          "name": "_takeProfit",
          "type": "int256"
        },
        {
          "internalType": "int256",
          "name": "_stopLoss",
          "type": "int256"
        }
      ],
      "name": "openMarketPriceOrder",
      "outputs": [
        {
          "internalType": "uint256",
          "name": "",
          "type": "uint256"
        }
      ],
      "stateMutability": "nonpayable",
      "type": "function"
    },
    {
      "inputs": [
        {
          "internalType": "uint256",
          "name": "_tradeId",
          "type": "uint256"
        }
      ],
      "name": "closeOrder",
      "outputs": [
        {
          "internalType": "int256",
          "name": "",
          "type": "int256"
        }
      ],
      "stateMutability": "nonpayable",
      "type": "function"
    },
    {
      "inputs": [],
      "name": "checkTokenVaultBalance",
      "outputs": [
        {
          "internalType": "uint256",
          "name": "",
          "type": "uint256"
        }
      ],
      "stateMutability": "view",
      "type": "function",
      "constant": true
    }
  ],
  "bytecode": "0x61010060405234801561001157600080fd5b50604051610c00380380610c0083398101604081905261003091610081565b6001600160a01b0394851660a05291841660c052600080546001600160a01b031916918516919091179055821660e052166080526100f6565b6001600160a01b038116811461007e57600080fd5b50565b600080600080600060a0868803121561009957600080fd5b85516100a481610069565b60208701519095506100b581610069565b60408701519094506100c681610069565b60608701519093506100d781610069565b60808701519092506100e881610069565b809150509295509295909350565b60805160a05160c05160e051610ab561014b60003960006102ed01526000818161053801528181610620015281816106a6015261077e01526000818161019e015261042f015260006101040152610ab56000f3fe608060405234801561001057600080fd5b50600436106100575760003560e01c8063069d6d1c1461005c578063135e563d146100825780634959967c146100ad578063934f91b9146100b5578063e0bab4c4146100c8575b600080fd5b61006f61006a36600461082c565b6100db565b6040519081526020015b60405180910390f35b61009561009036600461082c565b6102ab565b6040516001600160a01b039091168152602001610079565b61006f6102d5565b61006f6100c3366004610845565b610370565b600054610095906001600160a01b031681565b6040516306642f6160e51b81526004810182905233602482015260009081906001600160a01b037f0000000000000000000000000000000000000000000000000000000000000000169063cc85ec209060440161016060405180830381865afa15801561014c573d6000803e3d6000fd5b505050506040513d601f19601f8201168201806040525081019061017091906108dc565b60c0015160405163c2fe93ed60e01b8152600481018590523360248201529091506000906001600160a01b037f0000000000000000000000000000000000000000000000000000000000000000169063c2fe93ed906044016020604051808303816000875af11580156101e7573d6000803e3d6000fd5b505050506040513d601f19601f8201168201806040525081019061020b9190610976565b9050600061021982846109a5565b9050600081131561029b5760005460405163a9059cbb60e01b8152336004820152602481018390526001600160a01b039091169063a9059cbb906044016020604051808303816000875af1158015610275573d6000803e3d6000fd5b505050506040513d601f19601f8201168201806040525081019061029991906109e6565b505b6102a36104b0565b949350505050565b600381815481106102bb57600080fd5b6000918252602090912001546001600160a01b0316905081565b604051630935e01b60e21b81523360048201526000907f00000000000000000000000000000000000000000000000000000000000000006001600160a01b0316906324d7806c90602401602060405180830381865afa15801561033c573d6000803e3d6000fd5b505050506040513d601f19601f8201168201806040525081019061036091906109e6565b61036957600080fd5b5060015490565b600080546040516323b872dd60e01b8152336004820152306024820152604481018690526001600160a01b03909116906323b872dd906064016020604051808303816000875af11580156103c8573d6000803e3d6000fd5b505050506040513d601f19601f820116820180604052508101906103ec91906109e6565b5060405163e998190360e01b81523360048201526024810188905260448101879052606481018690526084810185905260a4810184905260c481018390526000907f00000000000000000000000000000000000000000000000000000000000000006001600160a01b03169063e99819039060e4016020604051808303816000875af1158015610480573d6000803e3d6000fd5b505050506040513d601f19601f820116820180604052508101906104a49190610976565b98975050505050505050565b600080546040516370a0823160e01b81523060048201526001600160a01b03909116906370a0823190602401602060405180830381865afa1580156104f9573d6000803e3d6000fd5b505050506040513d601f19601f8201168201806040525081019061051d9190610976565b600080546040516370a0823160e01b81526001600160a01b037f000000000000000000000000000000000000000000000000000000000000000081166004830152939450919216906370a0823190602401602060405180830381865afa15801561058b573d6000803e3d6000fd5b505050506040513d601f19601f820116820180604052508101906105af9190610976565b905060006105be605a83610807565b905060006105cd607884610807565b90508184111580156105ea57506a01a784379d99db420000008410155b156107235760006105fc600a85610807565b6040516381735dfb60e01b8152600481018290529091506000906001600160a01b037f000000000000000000000000000000000000000000000000000000000000000016906381735dfb906024016020604051808303816000875af1158015610669573d6000803e3d6000fd5b505050506040513d601f19601f8201168201806040525081019061068d9190610976565b604051630852cd8d60e31b8152600481018290529091507f00000000000000000000000000000000000000000000000000000000000000006001600160a01b0316906342966c68906024016020604051808303816000875af11580156106f7573d6000803e3d6000fd5b505050506040513d601f19601f8201168201806040525081019061071b9190610976565b505050610801565b80841015801561073e57506a01a784379d99db420000008410155b1561080157600061075a6a01a784379d99db4200000086610a0f565b60405163140e25ad60e31b8152600481018290529091506000906001600160a01b037f0000000000000000000000000000000000000000000000000000000000000000169063a0712d68906024016020604051808303816000875af11580156107c7573d6000803e3d6000fd5b505050506040513d601f19601f820116820180604052508101906107eb9190610976565b9050806001546107fb9190610a26565b60015550505b50505050565b6000806108148385610a3e565b90506000610823606483610a5d565b95945050505050565b60006020828403121561083e57600080fd5b5035919050565b60008060008060008060c0878903121561085e57600080fd5b505084359660208601359650604086013595606081013595506080810135945060a0013592509050565b604051610160810167ffffffffffffffff811182821017156108ba57634e487b7160e01b600052604160045260246000fd5b60405290565b80516001600160a01b03811681146108d757600080fd5b919050565b600061016082840312156108ef57600080fd5b6108f7610888565b610900836108c0565b81526020830151602082015260408301516040820152606083015160608201526080830151608082015260a083015160a082015260c083015160c082015260e083015160e08201526101008084015181830152506101208084015181830152506101408084015181830152508091505092915050565b60006020828403121561098857600080fd5b5051919050565b634e487b7160e01b600052601160045260246000fd5b600080821280156001600160ff1b03849003851316156109c7576109c761098f565b600160ff1b83900384128116156109e0576109e061098f565b50500190565b6000602082840312156109f857600080fd5b81518015158114610a0857600080fd5b9392505050565b600082821015610a2157610a2161098f565b500390565b60008219821115610a3957610a3961098f565b500190565b6000816000190483118215151615610a5857610a5861098f565b500290565b600082610a7a57634e487b7160e01b600052601260045260246000fd5b50049056fea264697066735822122055a89f17c15fae82e22688c82011f501b7e0ab535eb822c66afbc604425ba21464736f6c634300080f0033",
  "immutableReferences": {
    "2588": [
      {
        "length": 32,
        "start": 260
      }
    ],
    "2591": [
      {
        "length": 32,
        "start": 414
      },
      {
        "length": 32,
        "start": 1071
      }
    ],
    "2594": [
      {
        "length": 32,
        "start": 1336
      },
      {
        "length": 32,
        "start": 1568
      },
      {
        "length": 32,
        "start": 1702
      },
      {
        "length": 32,
        "start": 1918
      }
    ],
    "2597": [
      {
        "length": 32,
        "start": 749
      }
    ]
  },
  "source": "pragma solidity ^0.8.15;\n\n\nimport \"./MarketTradingControl.sol\";\nimport \"./ApedToken.sol\";\nimport \"./MockDAI.sol\";\nimport \"./AccessControl.sol\";\n\ninterface DAIInterface {\n    function balanceOf(address account) external view returns (uint256);\n    function transfer(address to, uint256 amount) external returns (bool);\n    function allowance(address owner, address spender) external view returns (uint256);\n    function approve(address spender, uint256 amount) external returns (bool);\n    function transferFrom(address from, address to, uint256 amount) external returns (bool);\n}\n\ncontract Vault {\n\n    //contracts\n    TradingStorage immutable tradingStorage;\n    MarketTradingControl immutable marketTradingControl;\n    ApedToken immutable apedToken;\n    AccessControl immutable accessControl;\n    MockDAI public DAI;\n\n\n    uint internal vaultTokenBalance;\n\n    address private apedAdmin;\n    address[] public traders;\n\n    constructor(MarketTradingControl _tradingControl, \n                TradingStorage _tradingStorage,\n                ApedToken _apedToken, \n                MockDAI _daiAddress, \n                AccessControl _accessControl)  {\n        marketTradingControl = _tradingControl;\n        apedToken = _apedToken;\n        DAI = _daiAddress;\n        accessControl = _accessControl;\n        tradingStorage = _tradingStorage;\n\n    }\n\n\n\n    function openMarketPriceOrder(\n                uint _pair, \n                int orderType, \n                int _leverageAmount, \n                int _collateral, \n                int _takeProfit, \n                int _stopLoss) public returns(uint) {\n\n        DAI.transferFrom(msg.sender, address(this), uint(_collateral));\n\n        uint tradeId = marketTradingControl.openMarketOrder(\n                         msg.sender, \n                         _pair, \n                         orderType, \n                         _leverageAmount, \n                         _collateral, \n                         _takeProfit,\n                          _stopLoss\n                    );\n        \n\n        return tradeId;\n\n    }\n\n    // _tradeId - index location in allTrades[]\n    // _tradeIndex - index location in userOpenTrades\n    function closeOrder(uint _tradeId) public returns(int) {\n        int collateral = tradingStorage.getOpenTradeDetails(_tradeId, msg.sender).collateral;\n        \n        int profit  = marketTradingControl.closeMarketOrder(_tradeId, msg.sender);\n\n        \n        int pnl = collateral + profit;\n        if(pnl > 0) DAI.transfer(msg.sender, uint(pnl));\n        // if (profit > 0) {\n        //     DAI.transfer(msg.sender, uint(pnl));\n        // } else if (profit < 0 && pnl > 0) {\n        //     DAI.transfer(msg.sender, uint(pnl));\n        // } \n\n        vaultBalancing();\n\n        return pnl;\n\n\n    }\n\n\n    function vaultBalancing() internal {\n       uint vaultReserveBalance = DAI.balanceOf(address(this));\n\n       uint curveReserveBalance = DAI.balanceOf(address(apedToken));\n       uint burnThreshold = percent(90, curveReserveBalance);\n       uint mintThreshold = percent(120, curveReserveBalance);\n        \n\n       if (vaultReserveBalance <= burnThreshold && vaultReserveBalance >= 200000 * 10e18 ) {\n        // calculate required APED token amount to get 10% amount of DAI from curve\n        uint reserveTokenRequest = percent(10, curveReserveBalance);\n        uint apedTokenRequired = apedToken.calculateBurnAmountRequired(reserveTokenRequest);\n        \n        // need to check if vault has equal or more aped Token required\n        apedToken.burn(apedTokenRequired);\n\n       } else if (vaultReserveBalance >= mintThreshold && vaultReserveBalance >= 200000 * 10e18) {\n\n          uint excessVaultBalance = vaultReserveBalance - (200000 * 10e18);        \n          uint token = apedToken.mint(excessVaultBalance);\n          vaultTokenBalance = vaultTokenBalance + token;\n\n       }\n\n    }\n\n    function percent(uint a, uint b) internal pure returns(uint) {\n      uint c = a*b;\n      uint integer = c/100;\n    //   uint fractional = c%100;\n      return integer;\n    }\n\n    function checkTokenVaultBalance() public view returns (uint) {\n        require(accessControl.isAdmin(msg.sender));\n        return vaultTokenBalance;\n    }\n\n\n}",
  "sourcePath": "/Users/cobra/Desktop/APED/truffle-aped/truffle-trading-contracts/contracts/Vault.sol",
  "compiler": {
    "name": "solc",
    "version": "0.8.15+commit.e14f2714.Emscripten.clang"
  },
  "schemaVersion": "3.4.11",
  "updatedAt": "2023-02-13T15:21:42.512Z",
  "networkType": "ethereum",
  "devdoc": {
    "kind": "dev",
    "methods": {},
    "version": 1
  },
  "userdoc": {
    "kind": "user",
    "methods": {},
    "version": 1
  }
}